:100000000C9462000C948A000C948A000C948A0070
:100010000C948A000C948A000C948A000C948A0038
:100020000C948A000C948A000C948A000C948A0028
:100030000C948A000C948A000C948A000C948A0018
:100040000C942B010C948A000C948A020C94DC0210
:100050000C948A000C948A000C948A000C948A00F8
:100060000C948A000C948A000000000024002700F1
:100070002A0000000000250028002B0000000000DE
:1000800023002600290004040404040404040202DA
:100090000202020203030303030301020408102007
:1000A0004080010204081020010204081020000012
:1000B0000007000201000003040600000000000029
:1000C00000004B0411241FBECFEFD8E0DEBFCDBF30
:1000D00011E0A0E0B1E0EAE0FEE002C005900D9280
:1000E000AE33B107D9F711E0AEE3B1E001C01D9224
:1000F000A63FB107E1F710E0C4ECD0E004C02297BE
:10010000FE010E94FF06C23CD107C9F70E94A2046B
:100110000C9403070C940000AF92BF92CF92DF9231
:10012000EF92FF920F931F93FC01EE0FFF1FEE0F54
:10013000FF1FE050FF4F60817181828193810E9497
:1001400025067B018C010E9473019B01AC0180910B
:100150003F0190914001A0914101B09142015901AC
:100160006A01A81AB90ACA0ADB0AAE14BF04C0069B
:10017000D106B8F020933F013093400140934101F4
:100180005093420180913E01882321F481E08093C5
:100190003E0102C010923E0185E060913E010E9446
:1001A00035021F910F91FF90EF90DF90CF90BF909D
:1001B000AF900895AF92BF92CF92DF92EF92FF92ED
:1001C0000F931F9380E00E94D40100D000D0AA2793
:1001D00097FDA095BA2F2AE030E040E050E0EDB75F
:1001E000FEB72183328343835483BC01CD0120E0D9
:1001F00030E040E050E0E12CE4E0FE2E012D112D36
:10020000AA24BB2465010E94DC057B018C010F90B0
:100210000F900F900F9084ED91E0B7014AE050E00D
:100220000E94BD05C7010E948C001F910F91FF9095
:10023000EF90DF90CF90BF90AF90089585E061E0A0
:100240000E94F60184ED91E040E855E260E070E044
:100250000E94170308951F920F920FB60F92112458
:100260002F933F938F939F93AF93BF9380914701B9
:1002700090914801A0914901B0914A0130914B0100
:100280000196A11DB11D232F2D5F2D3720F02D5775
:100290000196A11DB11D20934B01809347019093BE
:1002A0004801A0934901B0934A0180914301909184
:1002B0004401A0914501B09146010196A11DB11DD7
:1002C0008093430190934401A0934501B09346016C
:1002D000BF91AF919F918F913F912F910F900FBE42
:1002E0000F901F9018959FB7F8942091430130917B
:1002F0004401409145015091460186B5A89B06C036
:100300008F3F21F02F5F3F4F4F4F5F4F9FBF542FC5
:10031000432F322F2227280F311D411D511D82E00E
:10032000220F331F441F551F8A95D1F7B901CA0107
:100330000895789484B5826084BD84B5816084BD5D
:1003400085B5826085BD85B5816085BDEEE6F0E04E
:10035000808181608083E1E8F0E0108280818260AA
:100360008083808181608083E0E8F0E0808181602B
:100370008083E1EBF0E0808184608083E0EBF0E05B
:10038000808181608083EAE7F0E0808184608083FF
:1003900080818260808380818160808380818068A9
:1003A00080831092C1000895982F8E3008F09E50DF
:1003B000977080912C018295880F880F807C892B03
:1003C00080937C0080917A00806480937A00809191
:1003D0007A0086FDFCCF2091780040917900942F1F
:1003E00080E030E0282B392BC9010895CF93DF93AB
:1003F000482F50E0CA0186569F4FFC0134914A575E
:100400005F4FFA018491882369F190E0880F991F6A
:10041000FC01E859FF4FA591B491FC01EE58FF4F44
:10042000C591D491662351F42FB7F8948C91932FF2
:10043000909589238C93888189230BC0623061F465
:100440002FB7F8948C91932F909589238C93888162
:10045000832B88832FBF06C09FB7F8948C91832B82
:100460008C939FBFDF91CF910895482F50E0CA0130
:1004700082559F4FFC012491CA0186569F4FFC0173
:1004800094914A575F4FFA013491332309F440C0E5
:10049000222351F1233071F0243028F42130A1F0CF
:1004A000223011F514C02630B1F02730C1F02430CD
:1004B000D9F404C0809180008F7703C080918000C0
:1004C0008F7D8093800010C084B58F7702C084B583
:1004D0008F7D84BD09C08091B0008F7703C080916B
:1004E000B0008F7D8093B000E32FF0E0EE0FFF1F90
:1004F000EE58FF4FA591B4912FB7F894662321F4DD
:100500008C919095892302C08C91892B8C932FBF5D
:10051000089508951F920F920FB60F9211242F93F2
:100520003F934F938F939F93EF93FF938091C000DE
:1005300082FD1DC04091C60020918C0130918D013B
:100540002F5F3F4F2F73307080918E0190918F01FC
:100550002817390771F0E0918C01F0918D01E45B6F
:10056000FE4F408330938D0120938C0102C0809117
:10057000C600FF91EF919F918F914F913F912F91E5
:100580000F900FBE0F901F901895E091E001F09131
:10059000E101E05CFF4F8191919120813181805C8C
:1005A0009F4F821B930B60E470E00E949906892B99
:1005B00011F00E94890208951F920F920FB60F92B8
:1005C00011242F933F938F939F93EF93FF93209149
:1005D000D0013091D1018091D2019091D30128179F
:1005E000390731F48091C1008F7D8093C10014C020
:1005F000E091D201F091D301E057FE4F208180912C
:10060000D2019091D30101968F7390709093D30192
:100610008093D2012093C600FF91EF919F918F911B
:100620003F912F910F900FBE0F901F901895AF9292
:10063000BF92DF92EF92FF920F931F93CF93DF93BE
:10064000EC017A018B01DD24403081EE580780E017
:10065000680780E0780711F0DD24D39491E0A92E9B
:10066000B12CEC89FD89DD2069F0C50108A002C02C
:10067000880F991F0A94E2F7808360E079E08DE3A8
:1006800090E005C0108260E874E88EE190E0A80177
:1006900097010E94AC062150304040405040569592
:1006A00047953795279580E12030380720F0DD20E9
:1006B00011F0DD24D6CFE889F9893083EA89FB89F6
:1006C000208319A2EE89FF89408121E030E0C90131
:1006D0000C8C02C0880F991F0A94E2F7482B4083C4
:1006E000EE89FF894081C9010D8C02C0880F991FD6
:1006F0000A94E2F7482B4083EE89FF894081C901C3
:100700000E8C02C0880F991F0A94E2F7482B408391
:10071000EE89FF8980810F8C02C0220F331F0A945B
:10072000E2F7209528232083DF91CF911F910F912D
:10073000FF90EF90DF90BF90AF900895DC011C9682
:10074000ED91FC911D97E05CFF4F8191919120818B
:100750003181805C9F4F821B930B60E470E00E94AC
:1007600099060895DC011C96ED91FC911D97E05CC3
:10077000FF4F20813181E054F040DF01AE5BBF4F7D
:100780008D919C9111972817390719F42FEF3FEF9E
:1007900007C08D919C91E80FF91F8081282F30E0D0
:1007A000C9010895DC011C96ED91FC911D97E05C58
:1007B000FF4F20813181E054F040DF01AE5BBF4F3D
:1007C0008D919C9111972817390719F42FEF3FEF5E
:1007D00010C08D919C911197E80FF91F20818D9188
:1007E0009C91119701968F73907011969C938E93A4
:1007F00030E0C9010895DC0191968C91919788238E
:1008000039F05496ED91FC915597808186FFF9CF90
:1008100091961C920895CF93DF93EC01EE85FF85AE
:10082000E05CFF4F20813181E054F0402F5F3F4F6B
:100830002F733070DF01AE5BBF4F8D919C9111978C
:1008400028173907D1F3E05CFF4F80819181E05494
:10085000F040E80FF91F6083EE85FF85E05CFF4FF5
:1008600031832083EE89FF89208181E090E00F8C25
:1008700002C0880F991F0A94E2F7282B208381E099
:1008800089A3EC89FD8980818064808381E090E088
:10089000DF91CF9108951092D7011092D60188EE82
:1008A00093E0A0E0B0E08093D8019093D901A093A9
:1008B000DA01B093DB0181E391E09093D50180935D
:1008C000D4018CE491E09093E1018093E00180E910
:1008D00091E09093E3018093E20185EC90E09093A6
:1008E000E5018093E40184EC90E09093E70180932C
:1008F000E60180EC90E09093E9018093E80181ECBF
:1009000090E09093EB018093EA0182EC90E0909369
:10091000ED018093EC0186EC90E09093EF018093E1
:10092000EE0184E08093F00183E08093F10187E0A1
:100930008093F20185E08093F30181E08093F401DC
:1009400008950895CF93DF930E9499010E94A10416
:100950000E941E01C5ECD2E00E94DA002097E1F36C
:100960000E94C502F9CFCF92DF92EF92FF920F93D0
:100970001F93CF93DF937C016B018A01C0E0D0E02D
:100980000FC0D6016D916D01D701ED91FC910190E1
:10099000F081E02DC7010995C80FD91F0150104003
:1009A0000115110571F7CE01DF91CF911F910F91C4
:1009B000FF90EF90DF90CF900895EF92FF920F930A
:1009C0001F938C01DC01ED91FC910190F081E02DF1
:1009D0006DE009957C01D801ED91FC910190F081C9
:1009E000E02DC8016AE009959C012E0D3F1DC9014B
:1009F0001F910F91FF90EF900895CF93DF93EC013B
:100A00006115710519F420E030E00FC0DB010D9095
:100A10000020E9F71197A61BB70BE881F981028046
:100A2000F381E02DAD0109959C01C901DF91CF91C2
:100A300008954F925F927F928F929F92AF92BF9252
:100A4000CF92DF92EF92FF920F931F93DF93CF939A
:100A5000CDB7DEB7A1970FB6F894DEBF0FBECDBFFE
:100A60002C01742ECB01223008F42AE019A231E2C5
:100A7000C32ED12CCC0EDD1E822E9924AA24BB2499
:100A8000672D752FA50194010E94AC0679018A019A
:100A9000C801B701A50194010E947A06472D461BA3
:100AA0000894C108D1084A3014F4405D01C0495C83
:100AB000F6014083E114F1040105110521F07E2CBB
:100AC0005F2DC801DDCFC201B6010E94FD04A196D1
:100AD0000FB6F894DEBF0FBECDBFCF91DF911F914F
:100AE0000F91FF90EF90DF90CF90BF90AF909F90CD
:100AF0008F907F905F904F900895CF92DF92EF920A
:100B0000FF920F931F93CF93DF93EC016A017B0158
:100B10002115310541F4E881F9810190F081E02D42
:100B2000642F09951FC02A303105D1F477FF17C013
:100B3000E881F9810190F081E02D6DE209958C0149
:100B400044275527BA014C195D096E097F09CE016A
:100B50002AE00E9419059801280F391F04C02AE0D5
:100B60000E9419059C01C901DF91CF911F910F913E
:100B7000FF90EF90DF90CF900895CF92DF92EF92A9
:100B8000FF920F931F936C017B019A010027F7FCE2
:100B90000095102FB801A7010E947D058C01C601A8
:100BA0000E94DD04080F191FC8011F910F91FF90CB
:100BB000EF90DF90CF9008952F923F924F925F92E7
:100BC0006F927F928F929F92AF92BF92CF92DF925D
:100BD000EF92FF920F931F93DF93CF93CDB7DEB7C2
:100BE0003B014C0119012A016D897E898F89988DFD
:100BF0006A197B098C099D09621A730A840A950A8D
:100C0000A40193010E947A06E218F3080409150969
:100C1000A80197010E94CE062A0D3B1D4C1D5D1DAB
:100C2000B901CA01CF91DF911F910F91FF90EF9011
:100C3000DF90CF90BF90AF909F908F907F906F90FC
:100C40005F904F903F902F90089533D088F09F573A
:100C500090F0B92F9927B751A0F0D1F0660F771F08
:100C6000881F991F1AF0BA95C9F712C0B13081F0E8
:100C70003AD0B1E0089537C0672F782F8827B85F42
:100C800039F0B93FCCF3869577956795B395D9F749
:100C90003EF490958095709561957F4F8F4F9F4F53
:100CA000089557FD9058440F551F59F05F3F71F05C
:100CB0004795880F97FB991F61F09F3F79F08795C3
:100CC0000895121613061406551FF2CF4695F1DF4C
:100CD00008C0161617061806991FF1CF86957105DC
:100CE000610508940895E894BB2766277727CB0110
:100CF00097F90895629FD001739FF001829FE00DE4
:100D0000F11D649FE00DF11D929FF00D839FF00D8A
:100D1000749FF00D659FF00D9927729FB00DE11D36
:100D2000F91F639FB00DE11DF91FBD01CF01112413
:100D3000089597FB092E07260AD077FD04D049D0E5
:100D400006D000201AF4709561957F4F0895F6F74C
:100D5000909581959F4F0895A1E21A2EAA1BBB1B67
:100D6000FD010DC0AA1FBB1FEE1FFF1FA217B30777
:100D7000E407F50720F0A21BB30BE40BF50B661F8D
:100D8000771F881F991F1A9469F760957095809551
:100D900090959B01AC01BD01CF01089597FB092EF1
:100DA00005260ED057FD04D0D7DF0AD0001C38F43A
:100DB00050954095309521953F4F4F4F5F4F089587
:100DC000F6F790958095709561957F4F8F4F9F4F67
:100DD0000895AA1BBB1B51E107C0AA1FBB1FA61782
:100DE000B70710F0A61BB70B881F991F5A95A9F7D4
:100DF00080959095BC01CD010895EE0FFF1F0590E1
:0A0E0000F491E02D0994F894FFCF5F
:100E0A000050C3460002BA46008EB14600D6A94633
:100E1A0000C2A24600409C46003C964600AC904662
:100E2A0000828B4600B286460034824601000000EA
:0E0E3A00000B04B3049E03D203B203FB0300BB
:00000001FF
