:100000000C9462000C948A000C948A000C948A0070
:100010000C948A000C948A000C948A000C948A0038
:100020000C948A000C948A000C948A000C948A0028
:100030000C948A000C948A000C948A000C948A0018
:100040000C9427010C948A000C946E020C94C0024C
:100050000C948A000C948A000C948A000C948A00F8
:100060000C948A000C948A000000000024002700F1
:100070002A0000000000250028002B0000000000DE
:1000800023002600290004040404040404040202DA
:100090000202020203030303030301020408102007
:1000A0004080010204081020010204081020000012
:1000B0000007000201000003040600000000000029
:1000C00000002F0411241FBECFEFD8E0DEBFCDBF4C
:1000D00011E0A0E0B1E0E8E2FDE002C005900D9281
:1000E000A832B107D9F711E0A8E2B1E001C01D9232
:1000F000A03EB107E1F710E0C4ECD0E004C02297C5
:10010000FE010E948E06C23CD107C9F70E948604F8
:100110000C9492060C940000AF92BF92CF92DF92A3
:10012000EF92FF920F931F93FC01EE0FFF1FE05021
:10013000FF4FE080F1800027F7FC0095102F0E9410
:100140006F019B01AC018091290190912A01A0913E
:100150002B01B0912C0159016A01A81AB90ACA0AE7
:10016000DB0AAE14BF04C006D106B8F02093290103
:1001700030932A0140932B0150932C018091280148
:10018000882321F481E08093280102C01092280185
:1001900085E0609128010E9419021F910F91FF9044
:1001A000EF90DF90CF90BF90AF900895AF92BF9245
:1001B000CF92DF92EF92FF920F931F9380E00E9405
:1001C000B80100D000D0AA2797FDA095BA2F28E04B
:1001D00030E040E050E0EDB7FEB721833283438347
:1001E0005483BC01CD0120E030E040E050E0E12C40
:1001F000E4E0FE2E012D112DAA24BB2465010E94EE
:10020000C0057B018C010F900F900F900F908EEB2B
:1002100091E0B7014AE050E00E94A105C7010E94A9
:100220008C001F910F91FF90EF90DF90CF90BF90C7
:10023000AF90089585E061E00E94DA018EEB91E0D5
:1002400040E855E260E070E00E94FB0208951F92D2
:100250000F920FB60F9211242F933F938F939F937A
:10026000AF93BF938091310190913201A0913301FE
:10027000B0913401309135010196A11DB11D232F9C
:100280002D5F2D3720F02D570196A11DB11D209314
:1002900035018093310190933201A0933301B093E3
:1002A000340180912D0190912E01A0912F01B091E8
:1002B00030010196A11DB11D80932D0190932E0157
:1002C000A0932F01B0933001BF91AF919F918F9177
:1002D0003F912F910F900FBE0F901F9018958FB7E1
:1002E000F8942091310130913201409133015091C5
:1002F00034018FBFB901CA010895789484B5826032
:1003000084BD84B5816084BD85B5826085BD85B5B9
:10031000816085BDEEE6F0E0808181608083E1E868
:10032000F0E01082808182608083808181608083A0
:10033000E0E8F0E0808181608083E1EBF0E08081A3
:1003400084608083E0EBF0E0808181608083EAE775
:10035000F0E08081846080838081826080838081FE
:10036000816080838081806880831092C1000895BD
:10037000982F8E3008F09E509770809116018295CC
:10038000880F880F807C892B80937C0080917A0075
:10039000806480937A0080917A0086FDFCCF209162
:1003A000780040917900942F80E030E0282B392BA1
:1003B000C9010895CF93DF93482F50E0CA018656B4
:1003C0009F4FFC0134914A575F4FFA018491882373
:1003D00069F190E0880F991FFC01E859FF4FA59142
:1003E000B491FC01EE58FF4FC591D491662351F4AE
:1003F0002FB7F8948C91932F909589238C938881B3
:1004000089230BC0623061F42FB7F8948C91932F3D
:10041000909589238C938881832B88832FBF06C076
:100420009FB7F8948C91832B8C939FBFDF91CF91D2
:100430000895482F50E0CA0182559F4FFC01249136
:10044000CA0186569F4FFC0194914A575F4FFA01AB
:100450003491332309F440C0222351F1233071F049
:10046000243028F42130A1F0223011F514C02630B8
:10047000B1F02730C1F02430D9F404C0809180005D
:100480008F7703C0809180008F7D8093800010C0A3
:1004900084B58F7702C084B58F7D84BD09C08091FB
:1004A000B0008F7703C08091B0008F7D8093B00043
:1004B000E32FF0E0EE0FFF1FEE58FF4FA591B49130
:1004C0002FB7F894662321F48C919095892302C06C
:1004D0008C91892B8C932FBF089508951F920F92B2
:1004E0000FB60F9211242F933F934F938F939F93A7
:1004F000EF93FF938091C00082FD1DC04091C60024
:1005000020917601309177012F5F3F4F2F7330702C
:1005100080917801909179012817390771F0E09165
:100520007601F0917701EA5CFE4F408330937701CA
:100530002093760102C08091C600FF91EF919F91B8
:100540008F914F913F912F910F900FBE0F901F9061
:100550001895E091CA01F091CB01E05CFF4F8191C9
:10056000919120813181805C9F4F821B930B60E4CD
:1005700070E00E942806892B11F00E946D020895F8
:100580001F920F920FB60F9211242F933F938F93C8
:100590009F93EF93FF932091BA013091BB0180911B
:1005A000BC019091BD012817390731F48091C10039
:1005B0008F7D8093C10014C0E091BC01F091BD011A
:1005C000E658FE4F20818091BC019091BD010196BB
:1005D0008F7390709093BD018093BC012093C600EF
:1005E000FF91EF919F918F913F912F910F900FBEAF
:1005F0000F901F901895AF92BF92DF92EF92FF92EB
:100600000F931F93CF93DF93EC017A018B01DD24CD
:10061000403081EE580780E0680780E0780711F0ED
:10062000DD24D39491E0A92EB12CEC89FD89DD2045
:1006300069F0C50108A002C0880F991F0A94E2F76B
:10064000808360E079E08DE390E005C0108260E88F
:1006500074E88EE190E0A80197010E943B062150CA
:10066000304040405040569547953795279580E15A
:100670002030380720F0DD2011F0DD24D6CFE889C6
:10068000F9893083EA89FB89208319A2EE89FF89E1
:10069000408121E030E0C9010C8C02C0880F991F15
:1006A0000A94E2F7482B4083EE89FF894081C90113
:1006B0000D8C02C0880F991F0A94E2F7482B4083E3
:1006C000EE89FF894081C9010E8C02C0880F991FF5
:1006D0000A94E2F7482B4083EE89FF8980810F8CD2
:1006E00002C0220F331F0A94E2F7209528232083AB
:1006F000DF91CF911F910F91FF90EF90DF90BF900E
:10070000AF900895DC011C96ED91FC911D97E05C83
:10071000FF4F8191919120813181805C9F4F821B9D
:10072000930B60E470E00E9428060895DC011C969B
:10073000ED91FC911D97E05CFF4F20813181E054E9
:10074000F040DF01AE5BBF4F8D919C911197281750
:10075000390719F42FEF3FEF07C08D919C91E80FF7
:10076000F91F8081282F30E0C9010895DC011C9613
:10077000ED91FC911D97E05CFF4F20813181E054A9
:10078000F040DF01AE5BBF4F8D919C911197281710
:10079000390719F42FEF3FEF10C08D919C911197FD
:1007A000E80FF91F20818D919C91119701968F730D
:1007B000907011969C938E9330E0C9010895DC01EE
:1007C00091968C919197882339F05496ED91FC91F4
:1007D0005597808186FFF9CF91961C920895CF930B
:1007E000DF93EC01EE85FF85E05CFF4F20813181D6
:1007F000E054F0402F5F3F4F2F733070DF01AE5B4E
:10080000BF4F8D919C91119728173907D1F3E05C68
:10081000FF4F80819181E054F040E80FF91F608321
:10082000EE85FF85E05CFF4F31832083EE89FF89F1
:10083000208181E090E00F8C02C0880F991F0A94FC
:10084000E2F7282B208381E089A3EC89FD89808150
:100850008064808381E090E0DF91CF9108951092D1
:10086000C1011092C00188EE93E0A0E0B0E0809357
:10087000C2019093C301A093C401B093C5018BE161
:1008800091E09093BF018093BE0186E391E0909345
:10089000CB018093CA018AE791E09093CD018093C8
:1008A000CC0185EC90E09093CF018093CE0184EC55
:1008B00090E09093D1018093D00180EC90E09093F0
:1008C000D3018093D20181EC90E09093D501809385
:1008D000D40182EC90E09093D7018093D60186EC0E
:1008E00090E09093D9018093D80184E08093DA015D
:1008F00083E08093DB0187E08093DC0185E08093D7
:10090000DD0181E08093DE0108950895CF93DF93A8
:100910000E947D010E9485040E941A01C9EAD2E06A
:100920000E94D6002097E1F30E94A902F9CFCF924E
:10093000DF92EF92FF920F931F93CF93DF937C018F
:100940006B018A01C0E0D0E00FC0D6016D916D014E
:10095000D701ED91FC910190F081E02DC70109953F
:10096000C80FD91F015010400115110571F7CE01B4
:10097000DF91CF911F910F91FF90EF90DF90CF907B
:100980000895EF92FF920F931F938C01DC01ED917C
:10099000FC910190F081E02D6DE009957C01D8017A
:1009A000ED91FC910190F081E02DC8016AE009957C
:1009B0009C012E0D3F1DC9011F910F91FF90EF90DB
:1009C0000895CF93DF93EC016115710519F420E0D0
:1009D00030E00FC0DB010D900020E9F71197A61B56
:1009E000B70BE881F9810280F381E02DAD01099513
:1009F0009C01C901DF91CF9108954F925F927F9240
:100A00008F929F92AF92BF92CF92DF92EF92FF921E
:100A10000F931F93DF93CF93CDB7DEB7A1970FB698
:100A2000F894DEBF0FBECDBF2C01742ECB01223057
:100A300008F42AE019A231E2C32ED12CCC0EDD1E1F
:100A4000822E9924AA24BB24672D752FA501940119
:100A50000E943B0679018A01C801B701A5019401F2
:100A60000E940906472D461B0894C108D1084A3048
:100A700014F4405D01C0495CF6014083E114F104C7
:100A80000105110521F07E2C5F2DC801DDCFC201CB
:100A9000B6010E94E104A1960FB6F894DEBF0FBE26
:100AA000CDBFCF91DF911F910F91FF90EF90DF901D
:100AB000CF90BF90AF909F908F907F905F904F901E
:100AC0000895CF92DF92EF92FF920F931F93CF93EF
:100AD000DF93EC016A017B012115310541F4E881C6
:100AE000F9810190F081E02D642F09951FC02A3013
:100AF0003105D1F477FF17C0E881F9810190F081C9
:100B0000E02D6DE209958C0144275527BA014C1957
:100B10005D096E097F09CE012AE00E94FD0498015B
:100B2000280F391F04C02AE00E94FD049C01C9015E
:100B3000DF91CF911F910F91FF90EF90DF90CF90B9
:100B40000895CF92DF92EF92FF920F931F936C0163
:100B50007B019A010027F7FC0095102FB801A7012F
:100B60000E9461058C01C6010E94C104080F191F73
:100B7000C8011F910F91FF90EF90DF90CF900895E3
:100B80002F923F924F925F926F927F928F929F929D
:100B9000AF92BF92CF92DF92EF92FF920F931F938B
:100BA000DF93CF93CDB7DEB73B014C0119012A018A
:100BB0006D897E898F89988D6A197B098C099D09B9
:100BC000621A730A840A950AA40193010E94090615
:100BD000E218F30804091509A80197010E945D06AF
:100BE0002A0D3B1D4C1D5D1DB901CA01CF91DF913E
:100BF0001F910F91FF90EF90DF90CF90BF90AF903B
:100C00009F908F907F906F905F904F903F902F902C
:100C10000895629FD001739FF001829FE00DF11D46
:100C2000649FE00DF11D929FF00D839FF00D749F66
:100C3000F00D659FF00D9927729FB00DE11DF91F12
:100C4000639FB00DE11DF91FBD01CF01112408956F
:100C500097FB092E07260AD077FD04D049D006D08D
:100C600000201AF4709561957F4F0895F6F79095DE
:100C700081959F4F0895A1E21A2EAA1BBB1BFD016F
:100C80000DC0AA1FBB1FEE1FFF1FA217B307E4076B
:100C9000F50720F0A21BB30BE40BF50B661F771FC3
:100CA000881F991F1A9469F76095709580959095A3
:100CB0009B01AC01BD01CF01089597FB092E0526CC
:100CC0000ED057FD04D0D7DF0AD0001C38F4509561
:100CD0004095309521953F4F4F4F5F4F0895F6F760
:100CE00090958095709561957F4F8F4F9F4F089598
:100CF000AA1BBB1B51E107C0AA1FBB1FA617B70742
:100D000010F0A61BB70B881F991F5A95A9F780955D
:100D10009095BC01CD010895EE0FFF1F0590F49151
:080D2000E02D0994F894FFCFC7
:100D280005000A001E0032006400C8002C01F4010E
:100D3800E803000000000100000000EF03970482B0
:080D480003B6039603DF03006C
:00000001FF
